{
  "contractName": "NFT",
  "abi": [
    {
      "inputs": [],
      "stateMutability": "nonpayable",
      "type": "constructor"
    },
    {
      "anonymous": false,
      "inputs": [
        {
          "indexed": true,
          "internalType": "address",
          "name": "owner",
          "type": "address"
        },
        {
          "indexed": true,
          "internalType": "address",
          "name": "approved",
          "type": "address"
        },
        {
          "indexed": true,
          "internalType": "uint256",
          "name": "tokenId",
          "type": "uint256"
        }
      ],
      "name": "Approval",
      "type": "event"
    },
    {
      "anonymous": false,
      "inputs": [
        {
          "indexed": true,
          "internalType": "address",
          "name": "owner",
          "type": "address"
        },
        {
          "indexed": true,
          "internalType": "address",
          "name": "operator",
          "type": "address"
        },
        {
          "indexed": false,
          "internalType": "bool",
          "name": "approved",
          "type": "bool"
        }
      ],
      "name": "ApprovalForAll",
      "type": "event"
    },
    {
      "anonymous": false,
      "inputs": [
        {
          "indexed": false,
          "internalType": "uint256",
          "name": "_fromTokenId",
          "type": "uint256"
        },
        {
          "indexed": false,
          "internalType": "uint256",
          "name": "_toTokenId",
          "type": "uint256"
        }
      ],
      "name": "BatchMetadataUpdate",
      "type": "event"
    },
    {
      "anonymous": false,
      "inputs": [
        {
          "indexed": false,
          "internalType": "uint256",
          "name": "_tokenId",
          "type": "uint256"
        }
      ],
      "name": "MetadataUpdate",
      "type": "event"
    },
    {
      "anonymous": false,
      "inputs": [
        {
          "indexed": true,
          "internalType": "address",
          "name": "from",
          "type": "address"
        },
        {
          "indexed": true,
          "internalType": "address",
          "name": "to",
          "type": "address"
        },
        {
          "indexed": true,
          "internalType": "uint256",
          "name": "tokenId",
          "type": "uint256"
        }
      ],
      "name": "Transfer",
      "type": "event"
    },
    {
      "inputs": [
        {
          "internalType": "address",
          "name": "to",
          "type": "address"
        },
        {
          "internalType": "uint256",
          "name": "tokenId",
          "type": "uint256"
        }
      ],
      "name": "approve",
      "outputs": [],
      "stateMutability": "nonpayable",
      "type": "function"
    },
    {
      "inputs": [
        {
          "internalType": "address",
          "name": "owner",
          "type": "address"
        }
      ],
      "name": "balanceOf",
      "outputs": [
        {
          "internalType": "uint256",
          "name": "",
          "type": "uint256"
        }
      ],
      "stateMutability": "view",
      "type": "function",
      "constant": true
    },
    {
      "inputs": [
        {
          "internalType": "uint256",
          "name": "tokenId",
          "type": "uint256"
        }
      ],
      "name": "getApproved",
      "outputs": [
        {
          "internalType": "address",
          "name": "",
          "type": "address"
        }
      ],
      "stateMutability": "view",
      "type": "function",
      "constant": true
    },
    {
      "inputs": [
        {
          "internalType": "address",
          "name": "owner",
          "type": "address"
        },
        {
          "internalType": "address",
          "name": "operator",
          "type": "address"
        }
      ],
      "name": "isApprovedForAll",
      "outputs": [
        {
          "internalType": "bool",
          "name": "",
          "type": "bool"
        }
      ],
      "stateMutability": "view",
      "type": "function",
      "constant": true
    },
    {
      "inputs": [],
      "name": "name",
      "outputs": [
        {
          "internalType": "string",
          "name": "",
          "type": "string"
        }
      ],
      "stateMutability": "view",
      "type": "function",
      "constant": true
    },
    {
      "inputs": [
        {
          "internalType": "uint256",
          "name": "tokenId",
          "type": "uint256"
        }
      ],
      "name": "ownerOf",
      "outputs": [
        {
          "internalType": "address",
          "name": "",
          "type": "address"
        }
      ],
      "stateMutability": "view",
      "type": "function",
      "constant": true
    },
    {
      "inputs": [
        {
          "internalType": "address",
          "name": "from",
          "type": "address"
        },
        {
          "internalType": "address",
          "name": "to",
          "type": "address"
        },
        {
          "internalType": "uint256",
          "name": "tokenId",
          "type": "uint256"
        }
      ],
      "name": "safeTransferFrom",
      "outputs": [],
      "stateMutability": "nonpayable",
      "type": "function"
    },
    {
      "inputs": [
        {
          "internalType": "address",
          "name": "from",
          "type": "address"
        },
        {
          "internalType": "address",
          "name": "to",
          "type": "address"
        },
        {
          "internalType": "uint256",
          "name": "tokenId",
          "type": "uint256"
        },
        {
          "internalType": "bytes",
          "name": "data",
          "type": "bytes"
        }
      ],
      "name": "safeTransferFrom",
      "outputs": [],
      "stateMutability": "nonpayable",
      "type": "function"
    },
    {
      "inputs": [
        {
          "internalType": "address",
          "name": "operator",
          "type": "address"
        },
        {
          "internalType": "bool",
          "name": "approved",
          "type": "bool"
        }
      ],
      "name": "setApprovalForAll",
      "outputs": [],
      "stateMutability": "nonpayable",
      "type": "function"
    },
    {
      "inputs": [
        {
          "internalType": "bytes4",
          "name": "interfaceId",
          "type": "bytes4"
        }
      ],
      "name": "supportsInterface",
      "outputs": [
        {
          "internalType": "bool",
          "name": "",
          "type": "bool"
        }
      ],
      "stateMutability": "view",
      "type": "function",
      "constant": true
    },
    {
      "inputs": [],
      "name": "symbol",
      "outputs": [
        {
          "internalType": "string",
          "name": "",
          "type": "string"
        }
      ],
      "stateMutability": "view",
      "type": "function",
      "constant": true
    },
    {
      "inputs": [],
      "name": "tokenCount",
      "outputs": [
        {
          "internalType": "uint256",
          "name": "",
          "type": "uint256"
        }
      ],
      "stateMutability": "view",
      "type": "function",
      "constant": true
    },
    {
      "inputs": [
        {
          "internalType": "uint256",
          "name": "tokenId",
          "type": "uint256"
        }
      ],
      "name": "tokenURI",
      "outputs": [
        {
          "internalType": "string",
          "name": "",
          "type": "string"
        }
      ],
      "stateMutability": "view",
      "type": "function",
      "constant": true
    },
    {
      "inputs": [
        {
          "internalType": "address",
          "name": "from",
          "type": "address"
        },
        {
          "internalType": "address",
          "name": "to",
          "type": "address"
        },
        {
          "internalType": "uint256",
          "name": "tokenId",
          "type": "uint256"
        }
      ],
      "name": "transferFrom",
      "outputs": [],
      "stateMutability": "nonpayable",
      "type": "function"
    },
    {
      "inputs": [
        {
          "internalType": "string",
          "name": "_tokenURI",
          "type": "string"
        }
      ],
      "name": "mint",
      "outputs": [
        {
          "internalType": "uint256",
          "name": "",
          "type": "uint256"
        }
      ],
      "stateMutability": "nonpayable",
      "type": "function"
    }
  ],
  "bytecode": "0x60806040523480156200001157600080fd5b506040518060400160405280600881526020017f44417070204e46540000000000000000000000000000000000000000000000008152506040518060400160405280600481526020017f444150500000000000000000000000000000000000000000000000000000000081525081600090816200008f919062000324565b508060019081620000a1919062000324565b5050506200040b565b600081519050919050565b7f4e487b7100000000000000000000000000000000000000000000000000000000600052604160045260246000fd5b7f4e487b7100000000000000000000000000000000000000000000000000000000600052602260045260246000fd5b600060028204905060018216806200012c57607f821691505b602082108103620001425762000141620000e4565b5b50919050565b60008190508160005260206000209050919050565b60006020601f8301049050919050565b600082821b905092915050565b600060088302620001ac7fffffffffffffffffffffffffffffffffffffffffffffffffffffffffffffffff826200016d565b620001b886836200016d565b95508019841693508086168417925050509392505050565b6000819050919050565b6000819050919050565b600062000205620001ff620001f984620001d0565b620001da565b620001d0565b9050919050565b6000819050919050565b6200022183620001e4565b6200023962000230826200020c565b8484546200017a565b825550505050565b600090565b6200025062000241565b6200025d81848462000216565b505050565b5b8181101562000285576200027960008262000246565b60018101905062000263565b5050565b601f821115620002d4576200029e8162000148565b620002a9846200015d565b81016020851015620002b9578190505b620002d1620002c8856200015d565b83018262000262565b50505b505050565b600082821c905092915050565b6000620002f960001984600802620002d9565b1980831691505092915050565b6000620003148383620002e6565b9150826002028217905092915050565b6200032f82620000aa565b67ffffffffffffffff8111156200034b576200034a620000b5565b5b62000357825462000113565b6200036482828562000289565b600060209050601f8311600181146200039c576000841562000387578287015190505b62000393858262000306565b86555062000403565b601f198416620003ac8662000148565b60005b82811015620003d657848901518255600182019150602085019450602081019050620003af565b86831015620003f65784890151620003f2601f891682620002e6565b8355505b6001600288020188555050505b505050505050565b612bcc806200041b6000396000f3fe608060405234801561001057600080fd5b50600436106100f55760003560e01c806370a0823111610097578063b88d4fde11610066578063b88d4fde14610284578063c87b56dd146102a0578063d85d3d27146102d0578063e985e9c514610300576100f5565b806370a08231146101fc57806395d89b411461022c5780639f181b5e1461024a578063a22cb46514610268576100f5565b8063095ea7b3116100d3578063095ea7b31461017857806323b872dd1461019457806342842e0e146101b05780636352211e146101cc576100f5565b806301ffc9a7146100fa57806306fdde031461012a578063081812fc14610148575b600080fd5b610114600480360381019061010f9190611a57565b610330565b6040516101219190611a9f565b60405180910390f35b610132610391565b60405161013f9190611b4a565b60405180910390f35b610162600480360381019061015d9190611ba2565b610423565b60405161016f9190611c10565b60405180910390f35b610192600480360381019061018d9190611c57565b610469565b005b6101ae60048036038101906101a99190611c97565b610580565b005b6101ca60048036038101906101c59190611c97565b6105e0565b005b6101e660048036038101906101e19190611ba2565b610600565b6040516101f39190611c10565b60405180910390f35b61021660048036038101906102119190611cea565b610686565b6040516102239190611d26565b60405180910390f35b61023461073d565b6040516102419190611b4a565b60405180910390f35b6102526107cf565b60405161025f9190611d26565b60405180910390f35b610282600480360381019061027d9190611d6d565b6107d5565b005b61029e60048036038101906102999190611ee2565b6107eb565b005b6102ba60048036038101906102b59190611ba2565b61084d565b6040516102c79190611b4a565b60405180910390f35b6102ea60048036038101906102e59190612006565b61095f565b6040516102f79190611d26565b60405180910390f35b61031a6004803603810190610315919061204f565b61099b565b6040516103279190611a9f565b60405180910390f35b6000634906490660e01b7bffffffffffffffffffffffffffffffffffffffffffffffffffffffff1916827bffffffffffffffffffffffffffffffffffffffffffffffffffffffff1916148061038a575061038982610a2f565b5b9050919050565b6060600080546103a0906120be565b80601f01602080910402602001604051908101604052809291908181526020018280546103cc906120be565b80156104195780601f106103ee57610100808354040283529160200191610419565b820191906000526020600020905b8154815290600101906020018083116103fc57829003601f168201915b5050505050905090565b600061042e82610b11565b6004600083815260200190815260200160002060009054906101000a900473ffffffffffffffffffffffffffffffffffffffff169050919050565b600061047482610600565b90508073ffffffffffffffffffffffffffffffffffffffff168373ffffffffffffffffffffffffffffffffffffffff16036104e4576040517f08c379a00000000000000000000000000000000000000000000000000000000081526004016104db90612161565b60405180910390fd5b8073ffffffffffffffffffffffffffffffffffffffff16610503610b5c565b73ffffffffffffffffffffffffffffffffffffffff16148061053257506105318161052c610b5c565b61099b565b5b610571576040517f08c379a0000000000000000000000000000000000000000000000000000000008152600401610568906121f3565b60405180910390fd5b61057b8383610b64565b505050565b61059161058b610b5c565b82610c1d565b6105d0576040517f08c379a00000000000000000000000000000000000000000000000000000000081526004016105c790612285565b60405180910390fd5b6105db838383610cb2565b505050565b6105fb838383604051806020016040528060008152506107eb565b505050565b60008061060c83610fab565b9050600073ffffffffffffffffffffffffffffffffffffffff168173ffffffffffffffffffffffffffffffffffffffff160361067d576040517f08c379a0000000000000000000000000000000000000000000000000000000008152600401610674906122f1565b60405180910390fd5b80915050919050565b60008073ffffffffffffffffffffffffffffffffffffffff168273ffffffffffffffffffffffffffffffffffffffff16036106f6576040517f08c379a00000000000000000000000000000000000000000000000000000000081526004016106ed90612383565b60405180910390fd5b600360008373ffffffffffffffffffffffffffffffffffffffff1673ffffffffffffffffffffffffffffffffffffffff168152602001908152602001600020549050919050565b60606001805461074c906120be565b80601f0160208091040260200160405190810160405280929190818152602001828054610778906120be565b80156107c55780601f1061079a576101008083540402835291602001916107c5565b820191906000526020600020905b8154815290600101906020018083116107a857829003601f168201915b5050505050905090565b60075481565b6107e76107e0610b5c565b8383610fe8565b5050565b6107fc6107f6610b5c565b83610c1d565b61083b576040517f08c379a000000000000000000000000000000000000000000000000000000000815260040161083290612285565b60405180910390fd5b61084784848484611154565b50505050565b606061085882610b11565b6000600660008481526020019081526020016000208054610878906120be565b80601f01602080910402602001604051908101604052809291908181526020018280546108a4906120be565b80156108f15780601f106108c6576101008083540402835291602001916108f1565b820191906000526020600020905b8154815290600101906020018083116108d457829003601f168201915b5050505050905060006109026111b0565b9050600081510361091757819250505061095a565b60008251111561094c5780826040516020016109349291906123df565b6040516020818303038152906040529250505061095a565b610955846111c7565b925050505b919050565b60006007600081548092919061097490612432565b91905055506109853360075461122f565b6109916007548361124d565b6007549050919050565b6000600560008473ffffffffffffffffffffffffffffffffffffffff1673ffffffffffffffffffffffffffffffffffffffff16815260200190815260200160002060008373ffffffffffffffffffffffffffffffffffffffff1673ffffffffffffffffffffffffffffffffffffffff16815260200190815260200160002060009054906101000a900460ff16905092915050565b60007f80ac58cd000000000000000000000000000000000000000000000000000000007bffffffffffffffffffffffffffffffffffffffffffffffffffffffff1916827bffffffffffffffffffffffffffffffffffffffffffffffffffffffff19161480610afa57507f5b5e139f000000000000000000000000000000000000000000000000000000007bffffffffffffffffffffffffffffffffffffffffffffffffffffffff1916827bffffffffffffffffffffffffffffffffffffffffffffffffffffffff1916145b80610b0a5750610b09826112f1565b5b9050919050565b610b1a8161135b565b610b59576040517f08c379a0000000000000000000000000000000000000000000000000000000008152600401610b50906122f1565b60405180910390fd5b50565b600033905090565b816004600083815260200190815260200160002060006101000a81548173ffffffffffffffffffffffffffffffffffffffff021916908373ffffffffffffffffffffffffffffffffffffffff160217905550808273ffffffffffffffffffffffffffffffffffffffff16610bd783610600565b73ffffffffffffffffffffffffffffffffffffffff167f8c5be1e5ebec7d5bd14f71427d1e84f3dd0314c0f7b2291e5b200ac8c7c3b92560405160405180910390a45050565b600080610c2983610600565b90508073ffffffffffffffffffffffffffffffffffffffff168473ffffffffffffffffffffffffffffffffffffffff161480610c6b5750610c6a818561099b565b5b80610ca957508373ffffffffffffffffffffffffffffffffffffffff16610c9184610423565b73ffffffffffffffffffffffffffffffffffffffff16145b91505092915050565b8273ffffffffffffffffffffffffffffffffffffffff16610cd282610600565b73ffffffffffffffffffffffffffffffffffffffff1614610d28576040517f08c379a0000000000000000000000000000000000000000000000000000000008152600401610d1f906124ec565b60405180910390fd5b600073ffffffffffffffffffffffffffffffffffffffff168273ffffffffffffffffffffffffffffffffffffffff1603610d97576040517f08c379a0000000000000000000000000000000000000000000000000000000008152600401610d8e9061257e565b60405180910390fd5b610da4838383600161139c565b8273ffffffffffffffffffffffffffffffffffffffff16610dc482610600565b73ffffffffffffffffffffffffffffffffffffffff1614610e1a576040517f08c379a0000000000000000000000000000000000000000000000000000000008152600401610e11906124ec565b60405180910390fd5b6004600082815260200190815260200160002060006101000a81549073ffffffffffffffffffffffffffffffffffffffff02191690556001600360008573ffffffffffffffffffffffffffffffffffffffff1673ffffffffffffffffffffffffffffffffffffffff168152602001908152602001600020600082825403925050819055506001600360008473ffffffffffffffffffffffffffffffffffffffff1673ffffffffffffffffffffffffffffffffffffffff16815260200190815260200160002060008282540192505081905550816002600083815260200190815260200160002060006101000a81548173ffffffffffffffffffffffffffffffffffffffff021916908373ffffffffffffffffffffffffffffffffffffffff160217905550808273ffffffffffffffffffffffffffffffffffffffff168473ffffffffffffffffffffffffffffffffffffffff167fddf252ad1be2c89b69c2b068fc378daa952ba7f163c4a11628f55a4df523b3ef60405160405180910390a4610fa683838360016113a2565b505050565b60006002600083815260200190815260200160002060009054906101000a900473ffffffffffffffffffffffffffffffffffffffff169050919050565b8173ffffffffffffffffffffffffffffffffffffffff168373ffffffffffffffffffffffffffffffffffffffff1603611056576040517f08c379a000000000000000000000000000000000000000000000000000000000815260040161104d906125ea565b60405180910390fd5b80600560008573ffffffffffffffffffffffffffffffffffffffff1673ffffffffffffffffffffffffffffffffffffffff16815260200190815260200160002060008473ffffffffffffffffffffffffffffffffffffffff1673ffffffffffffffffffffffffffffffffffffffff16815260200190815260200160002060006101000a81548160ff0219169083151502179055508173ffffffffffffffffffffffffffffffffffffffff168373ffffffffffffffffffffffffffffffffffffffff167f17307eab39ab6107e8899845ad3d59bd9653f200f220920489ca2b5937696c31836040516111479190611a9f565b60405180910390a3505050565b61115f848484610cb2565b61116b848484846113a8565b6111aa576040517f08c379a00000000000000000000000000000000000000000000000000000000081526004016111a19061267c565b60405180910390fd5b50505050565b606060405180602001604052806000815250905090565b60606111d282610b11565b60006111dc6111b0565b905060008151116111fc5760405180602001604052806000815250611227565b806112068461152f565b6040516020016112179291906123df565b6040516020818303038152906040525b915050919050565b6112498282604051806020016040528060008152506115fd565b5050565b6112568261135b565b611295576040517f08c379a000000000000000000000000000000000000000000000000000000000815260040161128c9061270e565b60405180910390fd5b806006600084815260200190815260200160002090816112b591906128da565b507ff8e1a15aba9398e019f0b49df1a4fde98ee17ae345cb5f6b5e2c27f5033e8ce7826040516112e59190611d26565b60405180910390a15050565b60007f01ffc9a7000000000000000000000000000000000000000000000000000000007bffffffffffffffffffffffffffffffffffffffffffffffffffffffff1916827bffffffffffffffffffffffffffffffffffffffffffffffffffffffff1916149050919050565b60008073ffffffffffffffffffffffffffffffffffffffff1661137d83610fab565b73ffffffffffffffffffffffffffffffffffffffff1614159050919050565b50505050565b50505050565b60006113c98473ffffffffffffffffffffffffffffffffffffffff16611658565b15611522578373ffffffffffffffffffffffffffffffffffffffff1663150b7a026113f2610b5c565b8786866040518563ffffffff1660e01b81526004016114149493929190612a01565b6020604051808303816000875af192505050801561145057506040513d601f19601f8201168201806040525081019061144d9190612a62565b60015b6114d2573d8060008114611480576040519150601f19603f3d011682016040523d82523d6000602084013e611485565b606091505b5060008151036114ca576040517f08c379a00000000000000000000000000000000000000000000000000000000081526004016114c19061267c565b60405180910390fd5b805181602001fd5b63150b7a0260e01b7bffffffffffffffffffffffffffffffffffffffffffffffffffffffff1916817bffffffffffffffffffffffffffffffffffffffffffffffffffffffff191614915050611527565b600190505b949350505050565b60606000600161153e8461167b565b01905060008167ffffffffffffffff81111561155d5761155c611db7565b5b6040519080825280601f01601f19166020018201604052801561158f5781602001600182028036833780820191505090505b509050600082602001820190505b6001156115f2578080600190039150507f3031323334353637383961626364656600000000000000000000000000000000600a86061a8153600a85816115e6576115e5612a8f565b5b0494506000850361159d575b819350505050919050565b61160783836117ce565b61161460008484846113a8565b611653576040517f08c379a000000000000000000000000000000000000000000000000000000000815260040161164a9061267c565b60405180910390fd5b505050565b6000808273ffffffffffffffffffffffffffffffffffffffff163b119050919050565b600080600090507a184f03e93ff9f4daa797ed6e38ed64bf6a1f01000000000000000083106116d9577a184f03e93ff9f4daa797ed6e38ed64bf6a1f01000000000000000083816116cf576116ce612a8f565b5b0492506040810190505b6d04ee2d6d415b85acef81000000008310611716576d04ee2d6d415b85acef8100000000838161170c5761170b612a8f565b5b0492506020810190505b662386f26fc10000831061174557662386f26fc10000838161173b5761173a612a8f565b5b0492506010810190505b6305f5e100831061176e576305f5e100838161176457611763612a8f565b5b0492506008810190505b612710831061179357612710838161178957611788612a8f565b5b0492506004810190505b606483106117b657606483816117ac576117ab612a8f565b5b0492506002810190505b600a83106117c5576001810190505b80915050919050565b600073ffffffffffffffffffffffffffffffffffffffff168273ffffffffffffffffffffffffffffffffffffffff160361183d576040517f08c379a000000000000000000000000000000000000000000000000000000000815260040161183490612b0a565b60405180910390fd5b6118468161135b565b15611886576040517f08c379a000000000000000000000000000000000000000000000000000000000815260040161187d90612b76565b60405180910390fd5b61189460008383600161139c565b61189d8161135b565b156118dd576040517f08c379a00000000000000000000000000000000000000000000000000000000081526004016118d490612b76565b60405180910390fd5b6001600360008473ffffffffffffffffffffffffffffffffffffffff1673ffffffffffffffffffffffffffffffffffffffff16815260200190815260200160002060008282540192505081905550816002600083815260200190815260200160002060006101000a81548173ffffffffffffffffffffffffffffffffffffffff021916908373ffffffffffffffffffffffffffffffffffffffff160217905550808273ffffffffffffffffffffffffffffffffffffffff16600073ffffffffffffffffffffffffffffffffffffffff167fddf252ad1be2c89b69c2b068fc378daa952ba7f163c4a11628f55a4df523b3ef60405160405180910390a46119e76000838360016113a2565b5050565b6000604051905090565b600080fd5b600080fd5b60007fffffffff0000000000000000000000000000000000000000000000000000000082169050919050565b611a34816119ff565b8114611a3f57600080fd5b50565b600081359050611a5181611a2b565b92915050565b600060208284031215611a6d57611a6c6119f5565b5b6000611a7b84828501611a42565b91505092915050565b60008115159050919050565b611a9981611a84565b82525050565b6000602082019050611ab46000830184611a90565b92915050565b600081519050919050565b600082825260208201905092915050565b60005b83811015611af4578082015181840152602081019050611ad9565b60008484015250505050565b6000601f19601f8301169050919050565b6000611b1c82611aba565b611b268185611ac5565b9350611b36818560208601611ad6565b611b3f81611b00565b840191505092915050565b60006020820190508181036000830152611b648184611b11565b905092915050565b6000819050919050565b611b7f81611b6c565b8114611b8a57600080fd5b50565b600081359050611b9c81611b76565b92915050565b600060208284031215611bb857611bb76119f5565b5b6000611bc684828501611b8d565b91505092915050565b600073ffffffffffffffffffffffffffffffffffffffff82169050919050565b6000611bfa82611bcf565b9050919050565b611c0a81611bef565b82525050565b6000602082019050611c256000830184611c01565b92915050565b611c3481611bef565b8114611c3f57600080fd5b50565b600081359050611c5181611c2b565b92915050565b60008060408385031215611c6e57611c6d6119f5565b5b6000611c7c85828601611c42565b9250506020611c8d85828601611b8d565b9150509250929050565b600080600060608486031215611cb057611caf6119f5565b5b6000611cbe86828701611c42565b9350506020611ccf86828701611c42565b9250506040611ce086828701611b8d565b9150509250925092565b600060208284031215611d0057611cff6119f5565b5b6000611d0e84828501611c42565b91505092915050565b611d2081611b6c565b82525050565b6000602082019050611d3b6000830184611d17565b92915050565b611d4a81611a84565b8114611d5557600080fd5b50565b600081359050611d6781611d41565b92915050565b60008060408385031215611d8457611d836119f5565b5b6000611d9285828601611c42565b9250506020611da385828601611d58565b9150509250929050565b600080fd5b600080fd5b7f4e487b7100000000000000000000000000000000000000000000000000000000600052604160045260246000fd5b611def82611b00565b810181811067ffffffffffffffff82111715611e0e57611e0d611db7565b5b80604052505050565b6000611e216119eb565b9050611e2d8282611de6565b919050565b600067ffffffffffffffff821115611e4d57611e4c611db7565b5b611e5682611b00565b9050602081019050919050565b82818337600083830152505050565b6000611e85611e8084611e32565b611e17565b905082815260208101848484011115611ea157611ea0611db2565b5b611eac848285611e63565b509392505050565b600082601f830112611ec957611ec8611dad565b5b8135611ed9848260208601611e72565b91505092915050565b60008060008060808587031215611efc57611efb6119f5565b5b6000611f0a87828801611c42565b9450506020611f1b87828801611c42565b9350506040611f2c87828801611b8d565b925050606085013567ffffffffffffffff811115611f4d57611f4c6119fa565b5b611f5987828801611eb4565b91505092959194509250565b600067ffffffffffffffff821115611f8057611f7f611db7565b5b611f8982611b00565b9050602081019050919050565b6000611fa9611fa484611f65565b611e17565b905082815260208101848484011115611fc557611fc4611db2565b5b611fd0848285611e63565b509392505050565b600082601f830112611fed57611fec611dad565b5b8135611ffd848260208601611f96565b91505092915050565b60006020828403121561201c5761201b6119f5565b5b600082013567ffffffffffffffff81111561203a576120396119fa565b5b61204684828501611fd8565b91505092915050565b60008060408385031215612066576120656119f5565b5b600061207485828601611c42565b925050602061208585828601611c42565b9150509250929050565b7f4e487b7100000000000000000000000000000000000000000000000000000000600052602260045260246000fd5b600060028204905060018216806120d657607f821691505b6020821081036120e9576120e861208f565b5b50919050565b7f4552433732313a20617070726f76616c20746f2063757272656e74206f776e6560008201527f7200000000000000000000000000000000000000000000000000000000000000602082015250565b600061214b602183611ac5565b9150612156826120ef565b604082019050919050565b6000602082019050818103600083015261217a8161213e565b9050919050565b7f4552433732313a20617070726f76652063616c6c6572206973206e6f7420746f60008201527f6b656e206f776e6572206f7220617070726f76656420666f7220616c6c000000602082015250565b60006121dd603d83611ac5565b91506121e882612181565b604082019050919050565b6000602082019050818103600083015261220c816121d0565b9050919050565b7f4552433732313a2063616c6c6572206973206e6f7420746f6b656e206f776e6560008201527f72206f7220617070726f76656400000000000000000000000000000000000000602082015250565b600061226f602d83611ac5565b915061227a82612213565b604082019050919050565b6000602082019050818103600083015261229e81612262565b9050919050565b7f4552433732313a20696e76616c696420746f6b656e2049440000000000000000600082015250565b60006122db601883611ac5565b91506122e6826122a5565b602082019050919050565b6000602082019050818103600083015261230a816122ce565b9050919050565b7f4552433732313a2061646472657373207a65726f206973206e6f74206120766160008201527f6c6964206f776e65720000000000000000000000000000000000000000000000602082015250565b600061236d602983611ac5565b915061237882612311565b604082019050919050565b6000602082019050818103600083015261239c81612360565b9050919050565b600081905092915050565b60006123b982611aba565b6123c381856123a3565b93506123d3818560208601611ad6565b80840191505092915050565b60006123eb82856123ae565b91506123f782846123ae565b91508190509392505050565b7f4e487b7100000000000000000000000000000000000000000000000000000000600052601160045260246000fd5b600061243d82611b6c565b91507fffffffffffffffffffffffffffffffffffffffffffffffffffffffffffffffff820361246f5761246e612403565b5b600182019050919050565b7f4552433732313a207472616e736665722066726f6d20696e636f72726563742060008201527f6f776e6572000000000000000000000000000000000000000000000000000000602082015250565b60006124d6602583611ac5565b91506124e18261247a565b604082019050919050565b60006020820190508181036000830152612505816124c9565b9050919050565b7f4552433732313a207472616e7366657220746f20746865207a65726f2061646460008201527f7265737300000000000000000000000000000000000000000000000000000000602082015250565b6000612568602483611ac5565b91506125738261250c565b604082019050919050565b600060208201905081810360008301526125978161255b565b9050919050565b7f4552433732313a20617070726f766520746f2063616c6c657200000000000000600082015250565b60006125d4601983611ac5565b91506125df8261259e565b602082019050919050565b60006020820190508181036000830152612603816125c7565b9050919050565b7f4552433732313a207472616e7366657220746f206e6f6e20455243373231526560008201527f63656976657220696d706c656d656e7465720000000000000000000000000000602082015250565b6000612666603283611ac5565b91506126718261260a565b604082019050919050565b6000602082019050818103600083015261269581612659565b9050919050565b7f45524337323155524953746f726167653a2055524920736574206f66206e6f6e60008201527f6578697374656e7420746f6b656e000000000000000000000000000000000000602082015250565b60006126f8602e83611ac5565b91506127038261269c565b604082019050919050565b60006020820190508181036000830152612727816126eb565b9050919050565b60008190508160005260206000209050919050565b60006020601f8301049050919050565b600082821b905092915050565b6000600883026127907fffffffffffffffffffffffffffffffffffffffffffffffffffffffffffffffff82612753565b61279a8683612753565b95508019841693508086168417925050509392505050565b6000819050919050565b60006127d76127d26127cd84611b6c565b6127b2565b611b6c565b9050919050565b6000819050919050565b6127f1836127bc565b6128056127fd826127de565b848454612760565b825550505050565b600090565b61281a61280d565b6128258184846127e8565b505050565b5b818110156128495761283e600082612812565b60018101905061282b565b5050565b601f82111561288e5761285f8161272e565b61286884612743565b81016020851015612877578190505b61288b61288385612743565b83018261282a565b50505b505050565b600082821c905092915050565b60006128b160001984600802612893565b1980831691505092915050565b60006128ca83836128a0565b9150826002028217905092915050565b6128e382611aba565b67ffffffffffffffff8111156128fc576128fb611db7565b5b61290682546120be565b61291182828561284d565b600060209050601f8311600181146129445760008415612932578287015190505b61293c85826128be565b8655506129a4565b601f1984166129528661272e565b60005b8281101561297a57848901518255600182019150602085019450602081019050612955565b868310156129975784890151612993601f8916826128a0565b8355505b6001600288020188555050505b505050505050565b600081519050919050565b600082825260208201905092915050565b60006129d3826129ac565b6129dd81856129b7565b93506129ed818560208601611ad6565b6129f681611b00565b840191505092915050565b6000608082019050612a166000830187611c01565b612a236020830186611c01565b612a306040830185611d17565b8181036060830152612a4281846129c8565b905095945050505050565b600081519050612a5c81611a2b565b92915050565b600060208284031215612a7857612a776119f5565b5b6000612a8684828501612a4d565b91505092915050565b7f4e487b7100000000000000000000000000000000000000000000000000000000600052601260045260246000fd5b7f4552433732313a206d696e7420746f20746865207a65726f2061646472657373600082015250565b6000612af4602083611ac5565b9150612aff82612abe565b602082019050919050565b60006020820190508181036000830152612b2381612ae7565b9050919050565b7f4552433732313a20746f6b656e20616c7265616479206d696e74656400000000600082015250565b6000612b60601c83611ac5565b9150612b6b82612b2a565b602082019050919050565b60006020820190508181036000830152612b8f81612b53565b905091905056fea264697066735822122082ffd9e8ec9f9f952ec367f44fe86a22885514d8f082ba7b0ae570356a67e5b564736f6c63430008120033",
  "immutableReferences": {},
  "source": "// SPDX-License-Identifier: GPL-3.0\r\npragma solidity >=0.7.0 <0.9.0;\r\nimport \"@openzeppelin/contracts/token/ERC721/extensions/ERC721URIStorage.sol\";\r\n\r\ncontract NFT is ERC721URIStorage {\r\n    uint public tokenCount;\r\n    constructor() ERC721(\"DApp NFT\", \"DAPP\"){}\r\n    function mint(string memory _tokenURI) external returns(uint) {\r\n        tokenCount ++;\r\n        _safeMint(msg.sender, tokenCount);\r\n        _setTokenURI(tokenCount, _tokenURI);\r\n        return(tokenCount);\r\n    }\r\n}",
  "sourcePath": "E:\\nft_market_place\\web3\\contracts\\NFT.sol",
  "compiler": {
    "name": "solc",
    "version": "0.8.18+commit.87f61d96.Emscripten.clang"
  },
  "schemaVersion": "3.4.11",
  "updatedAt": "2023-07-19T14:53:41.382Z",
  "networkType": "ethereum",
  "devdoc": {
    "events": {
      "Approval(address,address,uint256)": {
        "details": "Emitted when `owner` enables `approved` to manage the `tokenId` token."
      },
      "ApprovalForAll(address,address,bool)": {
        "details": "Emitted when `owner` enables or disables (`approved`) `operator` to manage all of its assets."
      },
      "BatchMetadataUpdate(uint256,uint256)": {
        "details": "This event emits when the metadata of a range of tokens is changed. So that the third-party platforms such as NFT market could timely update the images and related attributes of the NFTs."
      },
      "MetadataUpdate(uint256)": {
        "details": "This event emits when the metadata of a token is changed. So that the third-party platforms such as NFT market could timely update the images and related attributes of the NFT."
      },
      "Transfer(address,address,uint256)": {
        "details": "Emitted when `tokenId` token is transferred from `from` to `to`."
      }
    },
    "kind": "dev",
    "methods": {
      "approve(address,uint256)": {
        "details": "See {IERC721-approve}."
      },
      "balanceOf(address)": {
        "details": "See {IERC721-balanceOf}."
      },
      "getApproved(uint256)": {
        "details": "See {IERC721-getApproved}."
      },
      "isApprovedForAll(address,address)": {
        "details": "See {IERC721-isApprovedForAll}."
      },
      "name()": {
        "details": "See {IERC721Metadata-name}."
      },
      "ownerOf(uint256)": {
        "details": "See {IERC721-ownerOf}."
      },
      "safeTransferFrom(address,address,uint256)": {
        "details": "See {IERC721-safeTransferFrom}."
      },
      "safeTransferFrom(address,address,uint256,bytes)": {
        "details": "See {IERC721-safeTransferFrom}."
      },
      "setApprovalForAll(address,bool)": {
        "details": "See {IERC721-setApprovalForAll}."
      },
      "supportsInterface(bytes4)": {
        "details": "See {IERC165-supportsInterface}"
      },
      "symbol()": {
        "details": "See {IERC721Metadata-symbol}."
      },
      "tokenURI(uint256)": {
        "details": "See {IERC721Metadata-tokenURI}."
      },
      "transferFrom(address,address,uint256)": {
        "details": "See {IERC721-transferFrom}."
      }
    },
    "version": 1
  },
  "userdoc": {
    "kind": "user",
    "methods": {},
    "version": 1
  }
}