{
  "contractName": "Marketplace",
  "abi": [
    {
      "inputs": [],
      "stateMutability": "nonpayable",
      "type": "constructor"
    },
    {
      "anonymous": false,
      "inputs": [
        {
          "indexed": false,
          "internalType": "uint256",
          "name": "itemId",
          "type": "uint256"
        },
        {
          "indexed": true,
          "internalType": "address",
          "name": "nft",
          "type": "address"
        },
        {
          "indexed": false,
          "internalType": "uint256",
          "name": "tokenId",
          "type": "uint256"
        },
        {
          "indexed": false,
          "internalType": "uint256",
          "name": "price",
          "type": "uint256"
        },
        {
          "indexed": true,
          "internalType": "address",
          "name": "seller",
          "type": "address"
        },
        {
          "indexed": true,
          "internalType": "address",
          "name": "buyer",
          "type": "address"
        }
      ],
      "name": "Bought",
      "type": "event"
    },
    {
      "anonymous": false,
      "inputs": [
        {
          "indexed": false,
          "internalType": "uint256",
          "name": "itemId",
          "type": "uint256"
        },
        {
          "indexed": true,
          "internalType": "address",
          "name": "nft",
          "type": "address"
        },
        {
          "indexed": false,
          "internalType": "uint256",
          "name": "tokenId",
          "type": "uint256"
        },
        {
          "indexed": false,
          "internalType": "uint256",
          "name": "price",
          "type": "uint256"
        },
        {
          "indexed": true,
          "internalType": "address",
          "name": "seller",
          "type": "address"
        }
      ],
      "name": "Offered",
      "type": "event"
    },
    {
      "inputs": [],
      "name": "itemCount",
      "outputs": [
        {
          "internalType": "uint256",
          "name": "",
          "type": "uint256"
        }
      ],
      "stateMutability": "view",
      "type": "function"
    },
    {
      "inputs": [
        {
          "internalType": "uint256",
          "name": "",
          "type": "uint256"
        }
      ],
      "name": "items",
      "outputs": [
        {
          "internalType": "uint256",
          "name": "itemId",
          "type": "uint256"
        },
        {
          "internalType": "contract IERC721",
          "name": "nft",
          "type": "address"
        },
        {
          "internalType": "uint256",
          "name": "tokenId",
          "type": "uint256"
        },
        {
          "internalType": "uint256",
          "name": "price",
          "type": "uint256"
        },
        {
          "internalType": "address payable",
          "name": "seller",
          "type": "address"
        },
        {
          "internalType": "address",
          "name": "owner",
          "type": "address"
        },
        {
          "internalType": "bool",
          "name": "sold",
          "type": "bool"
        }
      ],
      "stateMutability": "view",
      "type": "function"
    },
    {
      "inputs": [
        {
          "internalType": "contract IERC721",
          "name": "_nft",
          "type": "address"
        },
        {
          "internalType": "uint256",
          "name": "_tokenId",
          "type": "uint256"
        },
        {
          "internalType": "uint256",
          "name": "_price",
          "type": "uint256"
        }
      ],
      "name": "makeItem",
      "outputs": [],
      "stateMutability": "nonpayable",
      "type": "function"
    },
    {
      "inputs": [
        {
          "internalType": "uint256",
          "name": "_itemId",
          "type": "uint256"
        }
      ],
      "name": "purchaseItem",
      "outputs": [],
      "stateMutability": "payable",
      "type": "function"
    }
  ],
  "bytecode": "0x608060405234801561001057600080fd5b5060016000819055506000600181905550610db7806100306000396000f3fe60806040526004361061003f5760003560e01c80636bfb0d0114610044578063bfb231d21461006f578063d38ea5bf146100b2578063fa00afc7146100ce575b600080fd5b34801561005057600080fd5b506100596100f7565b60405161006691906107f4565b60405180910390f35b34801561007b57600080fd5b5061009660048036038101906100919190610840565b6100fd565b6040516100a99796959493929190610949565b60405180910390f35b6100cc60048036038101906100c79190610840565b6101ac565b005b3480156100da57600080fd5b506100f560048036038101906100f091906109f6565b610502565b005b60015481565b60026020528060005260406000206000915090508060000154908060010160009054906101000a900473ffffffffffffffffffffffffffffffffffffffff16908060020154908060030154908060040160009054906101000a900473ffffffffffffffffffffffffffffffffffffffff16908060050160009054906101000a900473ffffffffffffffffffffffffffffffffffffffff16908060050160149054906101000a900460ff16905087565b6101b4610782565b60006002600083815260200190815260200160002060030154905060006002600084815260200190815260200160002090506000831180156101f857506001548311155b610237576040517f08c379a000000000000000000000000000000000000000000000000000000000815260040161022e90610aa6565b60405180910390fd5b8134101561027a576040517f08c379a000000000000000000000000000000000000000000000000000000000815260040161027190610b38565b60405180910390fd5b8060050160149054906101000a900460ff16156102cc576040517f08c379a00000000000000000000000000000000000000000000000000000000081526004016102c390610ba4565b60405180910390fd5b8060040160009054906101000a900473ffffffffffffffffffffffffffffffffffffffff1673ffffffffffffffffffffffffffffffffffffffff166108fc82600301549081150290604051600060405180830381858888f1935050505015801561033a573d6000803e3d6000fd5b5060018160050160146101000a81548160ff0219169083151502179055508060010160009054906101000a900473ffffffffffffffffffffffffffffffffffffffff1673ffffffffffffffffffffffffffffffffffffffff166323b872dd6002600086815260200190815260200160002060050160009054906101000a900473ffffffffffffffffffffffffffffffffffffffff163384600201546040518463ffffffff1660e01b81526004016103f393929190610bc4565b600060405180830381600087803b15801561040d57600080fd5b505af1158015610421573d6000803e3d6000fd5b505050503373ffffffffffffffffffffffffffffffffffffffff168160040160009054906101000a900473ffffffffffffffffffffffffffffffffffffffff1673ffffffffffffffffffffffffffffffffffffffff168260010160009054906101000a900473ffffffffffffffffffffffffffffffffffffffff1673ffffffffffffffffffffffffffffffffffffffff167f8b4c9c8a607d67b321582dd8461041b1dc2ceeca70c8b7f37f8e02095cf2e76d86856002015486600301546040516104ed93929190610bfb565b60405180910390a450506104ff6107d1565b50565b61050a610782565b6000811161054d576040517f08c379a000000000000000000000000000000000000000000000000000000000815260040161054490610c7e565b60405180910390fd5b6001600081548092919061056090610ccd565b91905055506040518060e0016040528060015481526020018473ffffffffffffffffffffffffffffffffffffffff1681526020018381526020018281526020013373ffffffffffffffffffffffffffffffffffffffff1681526020013373ffffffffffffffffffffffffffffffffffffffff168152602001600015158152506002600060015481526020019081526020016000206000820151816000015560208201518160010160006101000a81548173ffffffffffffffffffffffffffffffffffffffff021916908373ffffffffffffffffffffffffffffffffffffffff160217905550604082015181600201556060820151816003015560808201518160040160006101000a81548173ffffffffffffffffffffffffffffffffffffffff021916908373ffffffffffffffffffffffffffffffffffffffff16021790555060a08201518160050160006101000a81548173ffffffffffffffffffffffffffffffffffffffff021916908373ffffffffffffffffffffffffffffffffffffffff16021790555060c08201518160050160146101000a81548160ff0219169083151502179055509050503373ffffffffffffffffffffffffffffffffffffffff168373ffffffffffffffffffffffffffffffffffffffff167f655a0cf9c8db81512be9a76dc1c5ae5380b8816ce6ad659cd61b715e2999d59a600154858560405161076d93929190610bfb565b60405180910390a361077d6107d1565b505050565b6002600054036107c7576040517f08c379a00000000000000000000000000000000000000000000000000000000081526004016107be90610d61565b60405180910390fd5b6002600081905550565b6001600081905550565b6000819050919050565b6107ee816107db565b82525050565b600060208201905061080960008301846107e5565b92915050565b600080fd5b61081d816107db565b811461082857600080fd5b50565b60008135905061083a81610814565b92915050565b6000602082840312156108565761085561080f565b5b60006108648482850161082b565b91505092915050565b600073ffffffffffffffffffffffffffffffffffffffff82169050919050565b6000819050919050565b60006108b26108ad6108a88461086d565b61088d565b61086d565b9050919050565b60006108c482610897565b9050919050565b60006108d6826108b9565b9050919050565b6108e6816108cb565b82525050565b60006108f78261086d565b9050919050565b610907816108ec565b82525050565b60006109188261086d565b9050919050565b6109288161090d565b82525050565b60008115159050919050565b6109438161092e565b82525050565b600060e08201905061095e600083018a6107e5565b61096b60208301896108dd565b61097860408301886107e5565b61098560608301876107e5565b61099260808301866108fe565b61099f60a083018561091f565b6109ac60c083018461093a565b98975050505050505050565b60006109c38261090d565b9050919050565b6109d3816109b8565b81146109de57600080fd5b50565b6000813590506109f0816109ca565b92915050565b600080600060608486031215610a0f57610a0e61080f565b5b6000610a1d868287016109e1565b9350506020610a2e8682870161082b565b9250506040610a3f8682870161082b565b9150509250925092565b600082825260208201905092915050565b7f6974656d20646f65736e27742065786973740000000000000000000000000000600082015250565b6000610a90601283610a49565b9150610a9b82610a5a565b602082019050919050565b60006020820190508181036000830152610abf81610a83565b9050919050565b7f6e6f7420656e6f75676820657468657220746f20636f766572206974656d207060008201527f7269636520616e64206d61726b65742066656500000000000000000000000000602082015250565b6000610b22603383610a49565b9150610b2d82610ac6565b604082019050919050565b60006020820190508181036000830152610b5181610b15565b9050919050565b7f6974656d20616c726561647920736f6c64000000000000000000000000000000600082015250565b6000610b8e601183610a49565b9150610b9982610b58565b602082019050919050565b60006020820190508181036000830152610bbd81610b81565b9050919050565b6000606082019050610bd9600083018661091f565b610be6602083018561091f565b610bf360408301846107e5565b949350505050565b6000606082019050610c1060008301866107e5565b610c1d60208301856107e5565b610c2a60408301846107e5565b949350505050565b7f5072696365206d7573742062652067726561746572207468616e207a65726f00600082015250565b6000610c68601f83610a49565b9150610c7382610c32565b602082019050919050565b60006020820190508181036000830152610c9781610c5b565b9050919050565b7f4e487b7100000000000000000000000000000000000000000000000000000000600052601160045260246000fd5b6000610cd8826107db565b91507fffffffffffffffffffffffffffffffffffffffffffffffffffffffffffffffff8203610d0a57610d09610c9e565b5b600182019050919050565b7f5265656e7472616e637947756172643a207265656e7472616e742063616c6c00600082015250565b6000610d4b601f83610a49565b9150610d5682610d15565b602082019050919050565b60006020820190508181036000830152610d7a81610d3e565b905091905056fea26469706673582212205b71b24947dbcf13f7f21b5a41a9b066b977644c8b1d496f5ba5769a6e22e3dd64736f6c63430008120033",
  "immutableReferences": {},
  "source": "// SPDX-License-Identifier: GPL-3.0\r\npragma solidity >=0.7.0 <0.9.0;\r\nimport \"@openzeppelin/contracts/token/ERC721/IERC721.sol\";\r\n\r\nimport \"@openzeppelin/contracts/security/ReentrancyGuard.sol\";\r\n\r\ncontract Marketplace is ReentrancyGuard {\r\n\r\n    // Variables\r\n\r\n    uint public itemCount; \r\n\r\n    struct Item {\r\n        uint itemId;\r\n        IERC721 nft;\r\n        uint tokenId;\r\n        uint price;\r\n        address payable seller;\r\n        address owner;\r\n        bool sold;\r\n    }\r\n\r\n    // itemId -> Item\r\n    mapping(uint => Item) public items;\r\n\r\n    event Offered(\r\n        uint itemId,\r\n        address indexed nft,\r\n        uint tokenId,\r\n        uint price,\r\n        address indexed seller\r\n    );\r\n    event Bought(\r\n        uint itemId,\r\n        address indexed nft,\r\n        uint tokenId,\r\n        uint price,\r\n        address indexed seller,\r\n        address indexed buyer\r\n    );\r\n\r\n    constructor() {\r\n        itemCount=0;\r\n    }\r\n\r\n    // Make item to offer on the marketplace\r\n    function makeItem(IERC721 _nft, uint _tokenId, uint _price) external nonReentrant {\r\n        require(_price > 0, \"Price must be greater than zero\");\r\n        // increment itemCount\r\n        itemCount ++;\r\n        // add new item to items mapping\r\n        items[itemCount] = Item (\r\n            itemCount,\r\n            _nft,\r\n            _tokenId,\r\n            _price,\r\n            payable(msg.sender),\r\n            msg.sender,\r\n            false\r\n        );\r\n        // emit Offered event\r\n        emit Offered(\r\n            itemCount,\r\n            address(_nft),\r\n            _tokenId,\r\n            _price,\r\n            msg.sender\r\n        );\r\n    }\r\n\r\n    function purchaseItem(uint _itemId) external payable nonReentrant {\r\n        uint _totalPrice = items[_itemId].price;\r\n        Item storage item = items[_itemId];\r\n        require(_itemId > 0 && _itemId <= itemCount, \"item doesn't exist\");\r\n        require(msg.value >= _totalPrice, \"not enough ether to cover item price and market fee\");\r\n        require(!item.sold, \"item already sold\");\r\n        // pay seller and feeAccount\r\n        item.seller.transfer(item.price);\r\n        // update item to sold\r\n        item.sold = true;\r\n        // transfer nft to buyer\r\n        item.nft.transferFrom(items[_itemId].owner, msg.sender, item.tokenId);\r\n        // emit Bought event\r\n        emit Bought(\r\n            _itemId,\r\n            address(item.nft),\r\n            item.tokenId,\r\n            item.price,\r\n            item.seller,\r\n            msg.sender\r\n        );\r\n    }\r\n\r\n}",
  "sourcePath": "E:\\nft_market_place\\web3\\contracts\\MarketPlace.sol",
  "compiler": {
    "name": "solc",
    "version": "0.8.18+commit.87f61d96.Emscripten.clang"
  },
  "schemaVersion": "3.4.11",
  "updatedAt": "2023-08-03T15:58:42.122Z",
  "devdoc": {
    "kind": "dev",
    "methods": {},
    "version": 1
  },
  "userdoc": {
    "kind": "user",
    "methods": {},
    "version": 1
  }
}